S0150000536F6C64657253746174696F6E2E73726563C4
S11300000C94F6000C94C2020C9413010C9413018A
S11300100C9413010C9413010C9413010C9413010C
S11300200C9413010C9413010C9413010C942B03E2
S11300300C9413010C9492040C9413010C9413016A
S11300400C94D7020C9413010C9413010C94130117
S11300500C94130108000000BE922449123EABAA7E
S1130060AA2ABECDCCCC4C3E00000080BEABAAAACE
S1130070AA3E00000000BF000000803F0000000016
S113008000084178D3BB4387D1133D190E3CC3BD4F
S11300904282AD2B3E68EC8276BED98FE1A93E4CFC
S11300A080EFFFBE01C4FF7F3F00000000006E61CF
S11300B06E00696E660000407A10F35A00A0724E1A
S11300C018090010A5D4E80000E87648170000E4F9
S11300D00B54020000CA9A3B000000E1F505000041
S11300E080969800000040420F000000A0860100A6
S11300F00000102700000000E80300000000640076
S1130100000000000A0000000000010000000000E0
S11301102C76D888DC674F0823DFC1DFAE59E1B104
S1130120B796E5E3E453C63AE651997696E8E6C213
S11301308426EB898C9B62ED407C6FFCEFBC9C9F1A
S113014040F2BAA56FA5F490055A2AF75C936B6C3C
S1130150F9676DC11BFCE0E40D47FEF520E6B50030
S1130160D0ED902E0300943577050080841E08009E
S113017000204E0A000000C80C333333330F986E4E
S113018012831141EF8D2114893BE65516CFFEE60B
S1130190DB18D1844B381BF77C1D901DA4BBE424D1
S11301A0203284725E228100C9F124ECA1E53D274E
S11301B04E414E494E495459494E46CDCCCC3D0A48
S11301C0D7233C17B7D13877CC2B329595E6241F2B
S11301D0B14F0A000020410000C84200401C4620E4
S11301E0BCBE4CCA1B0E5AAEC59D740011241FBE62
S11301F0CFE5D8E0DEBFCDBF12E0A0E6B0E0E8E096
S1130200FBE202C005900D92A234B107D9F722E0B7
S1130210A2E4B2E001C01D92A73AB207E1F70E943E
S1130220F1080C9482150C9400009AE69A95F1F763
S113023000C0AF98982F907F84FF02C0DC9A01C061
S1130240DC9885FF02C0DD9A01C0DD9886FF02C0FC
S1130250DE9A01C0DE98992314F4DF9A01C0DF9876
S1130260AD9A85E08A95F1F70000AD980895D49889
S1130270D598D698D798DC9ADD9ADE9ADF9AAE9A0A
S1130280AF9890E0AD9A25E02A95F1F70000CC9B59
S113029002C0906101C09F7ECD9B02C0906201C0EC
S11302A09F7DCE9B02C0906401C09F7BCF9B02C008
S11302B0906801C09F77AD98AD9A25E02A95F1F733
S11302C0000029B329B329B329B3AD989923D4F2F3
S11302D0AE98D49AD59AD69AD79AAF98982F907FF9
S11302E084FF02C0DC9A01C0DC9885FF02C0DD9A5D
S11302F001C0DD9886FF02C0DE9A01C0DE98992312
S113030014F4DF9A01C0DF98AD9A95E09A95F1F75D
S11303100000AD988295982F907F84FF02C0DC9AEC
S113032001C0DC9885FF02C0DD9A01C0DD9886FF1C
S113033002C0DE9A01C0DE98992314F4DF9A01C04A
S1130340DF98AD9A25E02A95F1F70000AD9808955D
S1130350D498D598D698D798DC9ADD9ADE9ADF9A05
S1130360AE9AAF9890E0AD9A25E02A95F1F7000097
S1130370CC9B02C0906101C09F7ECD9B02C0906265
S113038001C09F7DCE9B02C0906401C09F7BCF9B28
S113039002C0906801C09F77AD98AD9A25E02A9578
S11303A0F1F7000029B329B329B329B3AD989923F0
S11303B0D4F2AE98D49AD59AD69AD79AAF9A982F5F
S11303C0907F84FF02C0DC9A01C0DC9885FF02C0E4
S11303D0DD9A01C0DD9886FF02C0DE9A01C0DE9876
S11303E0992314F4DF9A01C0DF98AD9A95E09A95A9
S11303F0F1F70000AD988295982F907F84FF02C09A
S1130400DC9A01C0DC9885FF02C0DD9A01C0DD984A
S113041086FF02C0DE9A01C0DE98992314F4DF9AA5
S113042001C0DF98AD9A25E02A95F1F70000AD9858
S11304300895D49AD59AD69AD79AA79AA69AA59A9D
S11304402FEF89EF90E0215080409040E1F700C009
S1130450000080E30E9415018FE19EE40197F1F70B
S113046000C0000080E30E9415018FE99FE001971E
S1130470F1F700C0000080E30E94150188E20E94A9
S1130480150188E20E9437018CE00E94370181E067
S11304900E9437018FE99FE00197F1F700C0000047
S11304A086E00E9437010895CF93DF93EC018881A1
S11304B0882331F021960E94A80189918111FBCFF4
S11304C0DF91CF91089590EF9ABB88E08BBB80EBCE
S11304D081BB28E42BBB94BB9FE095BB87BB8DE815
S11304E088BB10BC83E389B988E98AB986E880BDF2
S11304F081E58DB91EB88EEE86B917B882E083BF48
S113050089B7816089BF89E785BD89B789BF83EFD2
S11305108FBD8FE88EBD89B789BF80E48BBF85B757
S1130520836085BF84B784BF78940895FC0190816B
S1130530992339F031965D9BFECF9CB9919191112D
S1130540FACF089598B321E030E002C0220F331FA0
S11305506A95E2F7622F6095962398BB9FEF980FF8
S1130560882361F0E42FF52FDF0180818FB9779B19
S1130570FECF8FB18C9331969150B0F788B3282B6E
S113058028BB08951F920F920FB60F9211248F93D8
S11305908BB71BBE8AB71ABE1DBC1CBC8BB780644C
S11305A08BBF8F910F900FBE0F901F9018951F92C5
S11305B00F920FB60F9211242F933F934F935F9393
S11305C06F937F938F939F93AF93BF93EF93FF9317
S11305D024B135B180915B0290915C02A0915D02DF
S11305E0B0915E02BC01CD01620F731F811D911D8C
S11305F060935B0270935C0280935D0290935E0251
S113060020915A022F5F20935A02263998F030E045
S113061040E050E00E9488113093740220937302EA
S113062010925A0210925B0210925C0210925D02C8
S113063010925E02FF91EF91BF91AF919F918F91C4
S11306407F916F915F914F913F912F910F900FBECA
S11306500F901F9018951F920F920FB60F921124AE
S11306602F933F934F935F936F937F938F939F93B6
S1130670AF93BF93EF93FF938091610290916202D5
S11306800196909362028093610280915F0290913F
S1130690600201969093600280935F0280916302EE
S11306A09091640201969093640280936302809116
S11306B06602882329F0809166028F5F8093660228
S11306C083B3837090915902891709F488C09130DB
S11306D031F1A8F0923019F0933089F13FC08330A2
S11306E031F4909158029F5F9093580237C0811162
S11306F035C0909157029F5F909357022FC082306C
S113070031F4909158029F5F9093580227C0813032
S113071029F5909157029F5F909357021FC0811152
S113072006C0909158029F5F9093580217C083307F
S1130730A9F4909157029F5F909357020FC08130A4
S113074031F4909158029F5F9093580207C0823011
S113075029F4909157029F5F909357028093590216
S1130760809158028430F0F08091690290916A027D
S11307700596853A21E092072CF490936A028093BF
S1130780690206C084EA91E090936A028093690248
S1130790109258026091690270916A0282E090E0BE
S11307A00E946315809157028430C8F080916902D9
S11307B090916A0205972AF090936A0280936902E5
S11307C004C010926A02109269021092570260915A
S11307D0690270916A0282E090E00E94631583B31B
S11307E08C7090915602891709F44CC0943049F1E9
S11307F018F49923B1F044C0983019F09C3089F171
S11308003FC08C3031F4909155029F5F9093550214
S113081037C0811135C0909154029F5F9093540268
S11308202FC0883031F4909155029F5F9093550208
S113083027C0843029F5909154029F5F909354020D
S11308401FC0811106C0909155029F5F909355027D
S113085017C08C30A9F4909154029F5F9093540276
S11308600FC0843031F4909155029F5F90935502EC
S113087007C0883029F4909154029F5F90935402EA
S113088080935602809155028430F0F08091670283
S1130890909168020596853F21E092072CF490938D
S11308A068028093670206C084EF91E09093680227
S11308B080936702109255026091670270916802FA
S11308C080E090E00E946315809154028430C8F067
S11308D0809167029091680205972AF090936802CC
S11308E08093670204C0109268021092670210920B
S11308F05402609167027091680280E090E00E9467
S11309006315FF91EF91BF91AF919F918F917F916B
S11309106F915F914F913F912F910F900FBE0F9068
S11309201F9018951F920F920FB60F9211248F9358
S1130930EF93FF9380916602811103C081E080935D
S11309406602E09165028CB1F0E0EB58FD4F8083C4
S1130950809165028F5F80936502FF91EF918F9183
S11309600F900FBE0F901F9018950F931F93CF9366
S1130970DF93CDB7DEB7C456D1090FB6F894DEBF06
S11309800FBECDBF60E670E00E94C8128C0165E620
S113099070E00E94CD12892B09F04FC0809198021B
S11309A08F93809197028F93809196028F93809179
S11309B095028F938FE690E09F938F938E010F5F44
S11309C01F4F1F930F930E944413C8010E94960265
S11309D067E970E080E090E00E94C8120E94E11193
S11309E06093950270939602809397029093980275
S11309F044E050E060E270E085E992E00E944C152A
S1130A00809198028F93809197028F9380919602A0
S1130A108F93809195028F9389E990E09F938F93B0
S1130A201F930F930E944413C8010E9496020FB6AD
S1130A30F894DEBF0FBECDBF60C260EB70E0C801AA
S1130A400E94CD12892B09F04FC0809172028F93BE
S1130A50809171028F93809170028F9380916F02C5
S1130A608F9387EB90E09F938F938E010F5F1F4FBF
S1130A701F930F930E944413C8010E94960267E9D2
S1130A8070E080E090E00E94C8120E94E11160933F
S1130A906F0270937002809371029093720244E02B
S1130AA050E06CE170E08FE692E00E944C1580917A
S1130AB072028F93809171028F93809170028F9351
S1130AC080916F028F9385ED90E09F938F931F9396
S1130AD00F930E944413C8010E9496020FB6F89423
S1130AE0DEBF0FBECDBF09C269EE70E0C8010E942F
S1130AF0CD12892B09F04FC0809194028F9380917D
S1130B0093028F93809192028F93809191028F939D
S1130B108EEE90E09F938F938E010F5F1F4F1F9374
S1130B200F930E944413C8010E94960267E970E083
S1130B3080E090E00E94C8120E94E111609391024B
S1130B4070939202809393029093940244E050E055
S1130B5068E170E081E992E00E944C158091940272
S1130B608F93809193028F93809192028F938091BF
S1130B7091028F938EE091E09F938F931F930F9335
S1130B800E944413C8010E9496020FB6F894DEBF77
S1130B900FBECDBFB2C160E271E0C8010E94CD12A8
S1130BA0892B09F04FC080916E028F9380916D0262
S1130BB08F9380916C028F9380916B028F9385E267
S1130BC091E09F938F938E010F5F1F4F1F930F939D
S1130BD00E944413C8010E94960267E970E080E015
S1130BE090E00E94C8120E94E11160936B0270931E
S1130BF06C0280936D0290936E0244E050E064E1D5
S1130C0070E08BE692E00E944C1580916E028F9307
S1130C1080916D028F9380916C028F9380916B020F
S1130C208F9385E491E09F938F931F930F930E947A
S1130C304413C8010E9496020FB6F894DEBF0FBE9B
S1130C40CDBF5BC167E571E0C8010E94CD12892B5D
S1130C5009F04FC08091A0028F9380919F028F93DF
S1130C6080919E028F9380919D028F938CE591E0F9
S1130C709F938F938E010F5F1F4F1F930F930E94BB
S1130C804413C8010E94960267E970E080E090E096
S1130C900E94C8120E94E11160939D0270939E020B
S1130CA080939F029093A00244E050E060E170E0E2
S1130CB08DE992E00E944C158091A0028F9380915F
S1130CC09F028F9380919E028F9380919D028F93B8
S1130CD08CE791E09F938F931F930F930E9444138B
S1130CE0C8010E9496020FB6F894DEBF0FBECDBFB6
S1130CF004C16EE871E0C8010E94CD12892B09F08D
S1130D004FC0809190028F9380918F028F93809136
S1130D108E028F9380918D028F9383E991E09F934C
S1130D208F938E010F5F1F4F1F930F930E944413E5
S1130D30C8010E94960267E970E080E090E00E949A
S1130D40C8120E94E11160938D0270938E02809309
S1130D508F029093900244E050E06CE070E08DE8E4
S1130D6092E00E944C15809190028F9380918F02A3
S1130D708F9380918E028F9380918D028F9383EB5A
S1130D8091E09F938F931F930F930E944413C80184
S1130D900E9496020FB6F894DEBF0FBECDBFADC061
S1130DA065EC71E0C8010E94CD12892B09F04FC097
S1130DB08091A4028F938091A3028F938091A202C9
S1130DC08F938091A1028F938AEC91E09F938F93EC
S1130DD08E010F5F1F4F1F930F930E944413C8018E
S1130DE00E94960267E970E080E090E00E94C812D9
S1130DF00E94E1116093A1027093A2028093A30266
S1130E009093A40244E050E068E070E081EA92E04C
S1130E100E944C158091A4028F938091A3028F931A
S1130E208091A2028F938091A1028F938AEE91E028
S1130E309F938F931F930F930E944413C8010E94A2
S1130E4096020FB6F894DEBF0FBECDBF56C06CEF4E
S1130E5071E0C8010E94CD12892B09F04EC0809127
S1130E609C028F9380919B028F9380919A028F931F
S1130E70809199028F9381E092E09F938F938E01EA
S1130E800F5F1F4F1F930F930E944413C8010E94CA
S1130E90960267E970E080E090E00E94C8120E9428
S1130EA0E1116093990270939A0280939B0290934C
S1130EB09C0244E050E064E070E089E992E00E9422
S1130EC04C1580919C028F9380919B028F9380910B
S1130ED09A028F93809199028F9381E292E09F937B
S1130EE08F931F930F930E944413C8010E9496028C
S1130EF00FB6F894DEBF0FBECDBF80E0CC59DF4FF4
S1130F000FB6F894DEBF0FBECDBFDF91CF911F9116
S1130F100F9108958F929F92AF92BF92CF92DF92DA
S1130F20EF92FF926B017C01BA01550F880B990B6C
S1130F300E94640CA70196010E94480B6B017C017E
S1130F4020916B0230916C0240916D0250916E02BF
S1130F500E94690D20915002309151024091520239
S1130F60509153020E94490B4B015C016093500263
S1130F7070935102809352029093530220E030E028
S1130F804AE754E40E94140D18166CF480E090E0D3
S1130F90AAE7B4E48093500290935102A0935202C2
S1130FA0B093530216C020E030E04AE754ECC50188
S1130FB0B4010E94B50B882364F480E090E0AAE7B2
S1130FC0B4EC8093500290935102A0935202B093D8
S1130FD053022091910230919202409193025091D8
S1130FE09402C701B6010E94690DA50194010E94F3
S1130FF0490B4B015C0120914C0230914D02409110
S11310004E0250914F02C701B6010E94480B209135
S11310109D0230919E0240919F025091A0020E9435
S1131020690DA50194010E94490B9B01AC01C0927A
S11310304C02D0924D02E0924E02F0924F0260E0D8
S113104070EC8FE794E40E94480B0E942C0C7723E9
S113105014F460E070E0611584E0780714F06FEF39
S113106073E079BD68BDFF90EF90DF90CF90BF90A3
S1131070AF909F908F9008958F929F92AF92BF925E
S1131080CF92DF92EF92FF926B017C01BA01550F70
S1131090880B990B0E94640CA70196010E94480BCF
S11310A06B017C0120916B0230916C0240916D02C6
S11310B050916E020E94690D2091480230914902BC
S11310C040914A0250914B020E94490B4B015C0132
S11310D0609348027093490280934A0290934B02B2
S11310E020E030E04AE754E40E94140D18166CF432
S11310F080E090E0AAE7B4E4809348029093490228
S1131100A0934A02B0934B0216C020E030E04AE7B5
S113111054ECC501B4010E94B50B882364F480E04B
S113112090E0AAE7B4EC8093480290934902A0931C
S11311304A02B0934B022091910230919202409165
S1131140930250919402C701B6010E94690DA50152
S113115094010E94490B4B015C012091440230919F
S113116045024091460250914702C701B6010E94D0
S1131170480B20919D0230919E0240919F02509114
S1131180A0020E94690DA50194010E94490B9B01D4
S1131190AC01C0924402D0924502E0924602F09221
S11311A0470260E070EC8FE794E40E94480B0E94D1
S11311B02C0C611584E078073CF4643F81E07807E7
S11311C02CF464EF71E002C06FEF73E07BBD6ABD85
S11311D0FF90EF90DF90CF90BF90AF909F908F9053
S11311E00895CF93DF93CDB7DEB768970FB6F89421
S11311F0DEBF0FBECDBF8FEF93E099BD88BD9BBD11
S11312008ABD8FEF83BD0E9463020E94190244E0ED
S113121050E060E270E085E992E00E94361544E017
S113122050E06CE170E08FE692E00E94361544E0F5
S113123050E068E170E081E992E00E94361544E0F4
S113124050E064E170E08BE692E00E94361544E0E1
S113125050E060E170E08DE992E00E94361544E0D0
S113126050E06CE070E08DE892E00E94361544E0B6
S113127050E068E070E081EA92E00E94361544E0B4
S113128050E064E070E089E992E00E94361582E063
S113129090E00E94461590936A028093690280E070
S11312A090E00E94461590936802809367029DE047
S11312B088E10FB6F894A89581BD0FBE91BD1F8A31
S11312C0188E812C912C712C612C512C412C312C99
S11312D0212CA12CB12CCE0101967C01A8958091E2
S11312E06602813A08F4CBC110926602109265023C
S11312F085E792E00E94B504E5E7F2E0DF0128E12A
S11313001D922A95E9F7BBC1AE014F5E5F4F64E0C1
S113131082E00E94A2028989A0E28A9FC00111246E
S11313202A89269526952695822B092E000CAA0B30
S1131330BB0B480E591E6A1E7B1E1F5F103821F717
S1131340C301B201689416F89695879577956795C9
S11313501694D1F70E94620C20E030E040E85EE38E
S11313600E94690D20916F023091700240917102C8
S1131370509172020E94480B762E672E582E492EE9
S113138020E030E04FE754E40E94140D181624F4D2
S1131390712C612C512C412CB29925C0AC9A4091EE
S11313A06702509168024F8B588FB3E0B6B921E2BF
S11313B027B98AE18A95F1F700C086B1806C86B9B5
S11313C0349BFECF85B1809583BD17B89AE19A9579
S11313D0F1F700C0AEEEA6B9672D762D852D942DBC
S11313E00E943C083FC0B39928C08FEF93E09BBD97
S11313F08ABD20E030E048EC52E4672D762D852D3F
S1131400942D0E94140D181634F499E193BDAC9AEE
S11314101F8A188E27C020E030E042E852E4672D8E
S1131420762D852D942D0E94B50B8823CCF4AFEF37
S1131430A3BDAC981F8A188E15C0B29B13C0B39B72
S113144011C0B8ECB3BDAC9A48EC50E0672D762DD2
S1131450852D942D0E943C0828EC2F8B188E02C0F9
S11314601F8A188E20E030E04FEF53E4672D762D6D
S1131470852D942D0E94140D181624F48FEF93E0FB
S11314809BBD8ABD80915F02909160028738914034
S113149008F499C01092600210925F026091730286
S11314A070917402660F771F660F771F80E090E0DB
S11314B00E94620C21EA38EB43E152E40E94BA0B29
S11314C02AEE36E444E352E40E94490B0E94210DC3
S11314D04B015C0127E431E34AE258E30E94690DC1
S11314E0A50194010E94690DA50194010E94690D52
S11314F06B8B7C8B8D8B9E8B2AE538E64BE85BEB04
S1131500C501B4010E94690D26E430E74FE85CE3AD
S11315100E94490B9B01AC016B897C898D899E8952
S11315200E94490B9B01AC0160E070E080E89FE3FE
S11315300E94BA0B23E333E948E853E40E94480BC2
S11315402091950230919602409197025091980211
S11315500E94480BC62ED72E082F192F362E272E61
S1131560A82EB92ECB990BC04091690250916A0202
S1131570842E952E802F912F0E948A0714C0B09933
S113158007C08FEF93E099BD88BD812C912C0BC0CF
S113159048EC50E0802F912F0E948A070F2EF8EC20
S11315A08F2EF02D912C20E030E047ED53E46C2D8C
S11315B07D2D802F912F0E94140D181624F4AFEF67
S11315C0B3E0B9BDA8BD80916102909162028538F3
S11315D0934008F444C0109262021092610281E0C8
S11315E00E9437018FE99FE00197F1F700C00000E6
S11315F080E80E94370188B599B59F938F93BF9275
S1131600AF922F923F929F928F92A4E3B2E0BF9346
S1131610AF93FF92EF920E944413C7010E945402B9
S113162080EC0E9437018AB59BB59F938F934F92AC
S11316305F926F927F92888D8F939F899F93A4E38B
S1131640B2E0BF93AF93FF92EF920E944413C7019D
S11316500E9454020FB6F894DEBF0FBECDBFA7ECB4
S1131660B0E01197F1F700C0000038CE1092640288
S11316701092630210E0412C512C320145CE80912E
S11316806302909164028D30934008F4FBCEEECF58
S11316905058BB27AA270E94600B0C94DA0C0E94B6
S11316A0CC0C38F00E94D30C20F039F49F3F19F48D
S11316B026F40C94C90C0EF4E095E7FB0C94C30CCF
S11316C0E92F0E94EB0C58F3BA17620773078407DB
S11316D0950720F079F4A6F50C940D0D0EF4E09521
S11316E00B2EBA2FA02D0B01B90190010C01CA01D8
S11316F0A0011124FF27591B99F0593F50F4503E83
S113170068F11A16F040A22F232F342F4427585F74
S1131710F3CF469537952795A795F0405395C9F78C
S11317207EF41F16BA0B620B730B840BBAF0915044
S1131730A1F0FF0FBB1F661F771F881FC2F70EC0E3
S1131740BA0F621F731F841F48F4879577956795B6
S1131750B795F7959E3F08F0B0CF9395880F08F0A2
S11317609927EE0F9795879508950E949F0C08F48A
S113177081E008950E94CE0B0C94DA0C0E94D30CE5
S113178058F00E94CC0C40F029F45F3F29F00C94EF
S1131790C30C51110C940E0D0C94C90C0E94EB0C4B
S11317A068F39923B1F3552391F3951B550BBB278C
S11317B0AA2762177307840738F09F5F5F4F220FD1
S11317C0331F441FAA1FA9F335D00E2E3AF0E0E8C8
S11317D032D091505040E695001CCAF72BD0FE2F12
S11317E029D0660F771F881FBB1F261737074807A6
S11317F0AB07B0E809F0BB0B802DBF01FF2793585E
S11318005F4F3AF09E3F510578F00C94C30C0C9452
S11318100E0D5F3FE4F3983ED4F386957795679574
S1131820B795F7959F5FC9F7880F911D9695879592
S113183097F90895E1E0660F771F881FBB1F6217B1
S113184073078407BA0720F0621B730B840BBA0B6F
S1131850EE1F88F7E09508950E94330C6894B11147
S11318600C940E0D08950E94F30C88F09F5798F085
S1131870B92F9927B751B0F0E1F0660F771F881F91
S1131880991F1AF0BA95C9F714C0B13091F00E94AB
S11318900D0DB1E008950C940D0D672F782F882756
S11318A0B85F39F0B93FCCF3869577956795B395D2
S11318B0D9F73EF490958095709561957F4F8F4F41
S11318C09F4F0895E89409C097FB3EF49095809546
S11318D0709561957F4F8F4F9F4F9923A9F0F92FF2
S11318E096E9BB279395F695879577956795B79570
S11318F0F111F8CFFAF4BB0F11F460FF1BC06F5F56
S11319007F4F8F4F9F4F16C0882311F096E911C067
S1131910772321F09EE8872F762F05C0662371F088
S113192096E8862F70E060E02AF09A95660F771F9C
S1131930881FDAF7880F9695879597F90895990F78
S11319400008550FAA0BE0E8FEEF16161706E80785
S1131950F907C0F012161306E407F50798F0621BA6
S1131960730B840B950B39F40A2661F0232B242B7B
S1131970252B21F408950A2609F4A140A6958FEF9A
S1131980811D811D089597F99F6780E870E060E0EC
S113199008959FEF80EC089500240A941616170604
S11319A018060906089500240A941216130614064C
S11319B005060895092E0394000C11F4882352F0AF
S11319C0BB0F40F4BF2B11F460FF04C06F5F7F4F67
S11319D08F4F9F4F089557FD9058440F551F59F04E
S11319E05F3F71F04795880F97FB991F61F09F3F08
S11319F079F087950895121613061406551FF2CF31
S1131A004695F1DF08C0161617061806991FF1CF80
S1131A1086957105610508940895E894BB276627A7
S1131A207727CB0197F908950E949F0C08F48FEF54
S1131A30089516F00C94D60D0C94C90C68940C946B
S1131A40C30C0E94F30CA8F39923C1F3AEF3DF9304
S1131A50CF931F930F93FF92C92FDD2788232AF07A
S1131A602197660F771F881FDAF720E030E040E8FF
S1131A705FEB9FE3883920F0803E38F021968F7722
S1131A800E94490BE4E5F0E004C00E94490BE1E840
S1131A90F0E00E94E40D8B01BE01EC01FB2E6F57B8
S1131AA071097595771F880B990B0E94640C28E1C6
S1131AB032E741E35FE30E947C0DAF2D9801AE0154
S1131AC0FF900F911F91CF91DF910E94600B0C94B6
S1131AD0DA0C0E947C0D0C94DA0C0E94CC0C38F0C9
S1131AE00E94D30C20F0952311F00C94C30C0C9499
S1131AF0C90C11240C940E0D0E94EB0C70F3959FED
S1131B00C1F3950F50E0551F629FF001729FBB27F0
S1131B10F00DB11D639FAA27F00DB11DAA1F649F8C
S1131B206627B00DA11D661F829F2227B00DA11D3F
S1131B30621F739FB00DA11D621F839FA00D611DC5
S1131B40221F749F3327A00D611D231F849F600DE6
S1131B50211D822F762F6A2F11249F5750409AF00F
S1131B60F1F088234AF0EE0FFF1FBB1F661F771F9B
S1131B70881F91505040A9F79E3F510580F00C9466
S1131B80C30C0C940E0D5F3FE4F3983ED4F386959A
S1131B9077956795B795F795E7959F5FC1F7FE2B06
S1131BA0880F911D9695879597F908959F3F31F079
S1131BB0915020F4879577956795B795880F911D77
S1131BC09695879597F90895DF93CF931F930F9375
S1131BD0FF92EF92DF927B018C01689406C0DA2EAB
S1131BE0EF010E947C0DFE01E894A59125913591A9
S1131BF045915591A6F3EF010E94600BFE019701F8
S1131C00A801DA9469F7DF90EF90FF900F911F918C
S1131C10CF91DF910895A0E1B0E0E1E1FEE00C9402
S1131C20AA117C011B016A01FC01178216828381BF
S1131C3081FF44C39E012F5F3F4F3901F701938118
S1131C40F10193FD859193FF81911F01882309F48C
S1131C5031C3853239F493FD859193FF81911F013E
S1131C60853239F4B70190E00E94081356016501EA
S1131C70E5CF10E0512C912CFFE1F915D8F08B320F
S1131C8079F038F4803279F08332A1F4F92DF061DF
S1131C902EC08D3261F0803369F4292D21602DC06E
S1131CA0392D3260932E892D8460982E2AC0E92D17
S1131CB0E86015C097FC2DC020ED280F2A3088F469
S1131CC096FE06C03AE0139F200D1124122F19C06E
S1131CD08AE0589E200D1124522EE92DE0629E2E9A
S1131CE010C08E3231F496FCE5C2F92DF0649F2EBB
S1131CF008C08C3621F4292D2068922E02C0883623
S1131D0041F4F10193FD859193FF81911F018111AC
S1131D10B3CF9BEB980F933020F4992D9061805EA4
S1131D2007C09BE9980F933008F066C1992D9F7EF8
S1131D3096FF16E09F73992E853619F49064992EB8
S1131D4008C0863621F4392F3068932E02C0111151
S1131D50115097FE07C01C3350F444244394410EA1
S1131D6027E00BC0183038F027E017E005C027E063
S1131D709CE3492E02C0212F412C560184E0A80E79
S1131D80B11CF6016081718182819381042DA301CC
S1131D900E94E5116C01F981FC87F0FF02C0F3FF9A
S1131DA006C091FC06C092FE06C000E205C00DE22A
S1131DB003C00BE201C000E08C858C7019F00111A6
S1131DC05AC29BC297FE10C04C0CFC85F4FF04C0A1
S1131DD08A81813309F44A94141474F528E0241593
S1131DE078F588E0482E2CC096FC2AC0812F90E01C
S1131DF08C159D059CF03CEFC3163FEFD30674F0A1
S1131E00892D8068982E0AC0E2E0F0E0EC0FFD1FF7
S1131E10E10FF11D8081803319F411501111F4CFB9
S1131E2097FE0EC044244394410E812F90E0C816BF
S1131E30D9062CF41C1904C04424439401C010E0B6
S1131E4097FE06C01C141D0434F4C601019605C097
S1131E5085E090E002C081E090E001110196112339
S1131E6031F0212F30E02F5F3F4F820F931F252D3C
S1131E7030E08217930714F4581A01C0512C892DAD
S1131E80897049F4552039F0B70180E290E00E944E
S1131E9008135A94F7CF002329F0B701802F90E05C
S1131EA00E94081393FC09C0552039F0B70180E360
S1131EB090E00E9408135A94F7CF97FE4CC0460155
S1131EC0D7FE02C0812C912CC60188199909F3010F
S1131ED0E80FF91FFE87ED87960124193109388B25
S1131EE02F87012F10E01195019511093FEF8316FB
S1131EF0930629F4B7018EE290E00E940813C814F7
S1131F00D9044CF08F8598898815990524F4ED85BA
S1131F10FE85818101C080E3F1E08F1A91082D854F
S1131F203E852F5F3F4F3E872D87801691062CF00C
S1131F30B70190E00E940813D9CFC814D90441F422
S1131F409A81963320F4953319F43C8534FF81E368
S1131F50B70190E04EC08A81813319F09C859F7E41
S1131F609C87B70190E00E940813111105C094FCEE
S1131F7018C085E690E017C0B7018EE290E00E9499
S1131F8008131E5F82E001E0080FF301E80FF11D62
S1131F908081B70190E00E940813802F0113F3CFD2
S1131FA0E6CF85E490E0B7010E940813D7FC06C091
S1131FB0C114D10441F4EC85E4FF05C0D194C1946B
S1131FC0D1088DE201C08BE2B70190E00E940813B2
S1131FD080E32AE0C216D1042CF08F5FFAE0CF1A16
S1131FE0D108F7CFB70190E00E940813B701C601EA
S1131FF0C0960E94081354C1833631F0833779F0B8
S1132000833509F056C020C0560132E0A30EB11C3E
S1132010F6018081898301E010E0630112C056015A
S1132020F2E0AF0EB11CF601C080D18096FE03C071
S1132030612F70E002C06FEF7FEFC6010E94D612DD
S11320408C01F92DFF7714C0560122E0A20EB11CB9
S1132050F601C080D18096FE03C0612F70E002C0FB
S11320606FEF7FEFC6010E94BD128C01F92DF0685D
S11320709F2EF3FD1AC0852D90E008171907A8F4C8
S1132080B70180E290E00E9408135A94F4CFF6015D
S113209097FC859197FE81916F01B70190E00E94B2
S11320A0081351105A94015011090115110579F7BB
S11320B0F7C0843611F0893661F5560197FE09C0E0
S11320C024E0A20EB11CF6016081718182819381AA
S11320D00AC0F2E0AF0EB11CF60160817181072ED7
S11320E0000C880B990BF92DFF769F2E97FF09C0E2
S11320F090958095709561957F4F8F4F9F4FF068B5
S11321009F2E2AE030E0A3010E946613C82EC61851
S11321103FC0092D853721F40F7E2AE030E01DC031
S1132120097F8F3691F018F4883559F0C3C0803791
S113213019F0883711F0BEC0006104FF09C00460C3
S113214007C094FE08C0066006C028E030E005C061
S113215020E130E002C020E132E0560107FF09C06F
S113216084E0A80EB11CF6016081718182819381A3
S113217008C0F2E0AF0EB11CF6016081718180E00D
S113218090E0A3010E946613C82EC6180F77902E04
S113219096FE0BC0092D0E7FC11650F494FE0AC0A2
S11321A092FC08C0092D0E7E05C0DC2C092D03C04D
S11321B0DC2C01C0D12E04FF0DC0FE01EC0DF11D7D
S11321C08081803311F4097E09C002FF06C0D394D4
S11321D0D39404C0802F867809F0D39403FD11C0F2
S11321E000FF06C01C2DD51480F4150D1D190DC05B
S11321F0D51458F4B70180E290E00E940813D394F8
S1132200F7CFD51410F45D1801C0512C04FF10C091
S1132210B70180E390E00E94081302FF17C001FD9C
S113222003C088E790E002C088E590E0B7010CC0E5
S1132230802F867859F001FF02C08BE201C080E252
S113224007FD8DE2B70190E00E940813C11638F42F
S1132250B70180E390E00E9408131150F7CFCA94AD
S1132260F301EC0DF11D8081B70190E00E94081389
S1132270C110F5CF15C0F4E0F51560F584E0581AE7
S113228093FE1FC0011127C02C8523FF2AC00EEA2C
S113229010E0392D3071932EF8018491811124C0FE
S11322A0552009F4E4CCB70180E290E00E940813C1
S11322B05A94F6CFF7018681978126C08FEF9FEF5E
S11322C023C0B70180E290E00E9408135A94511091
S11322D0F8CFD8CF512CB701802F90E00E9408137B
S11322E0D3CF02EB10E0D5CF91108052B70190E02C
S11322F00E9408130F5F1F4FCFCF23E0251510F462
S113230083E0BDCF512CC0CF6096E2E10C94C6119E
S1132310A1E21A2EAA1BBB1BFD010DC0AA1FBB1FE5
S1132320EE1FFF1FA217B307E407F50720F0A21B57
S1132330B30BE40BF50B661F771F881F991F1A94C4
S113234069F760957095809590959B01AC01BD01EE
S1132350CF0108952F923F924F925F926F927F9296
S11323608F929F92AF92BF92CF92DF92EF92FF92A1
S11323700F931F93CF93DF93CDB7DEB7CA1BDB0B4D
S11323800FB6F894DEBF0FBECDBF09942A883988F2
S113239048885F846E847D848C849B84AA84B984F9
S11323A0C884DF80EE80FD800C811B81AA81B98105
S11323B0CE0FD11D0FB6F894DEBF0FBECDBFED0119
S11323C00895662777270C94C413283008F027E073
S11323D03327DA01990F311D87FD9160009661055D
S11323E0710539F432602E5F3D9330E32A95E1F7AD
S11323F008959F3F30F080387105610509F03C5F16
S11324003C5F3D93913008F08068911DDF93CF933A
S11324101F930F93FF92EF92192F987F9695E92FB0
S113242096959695E90FFF27E05FFE4F992733278E
S1132430EE24FF24A701E70105900894079428F4EB
S1132440360FE71EF81E491F511D660F771F881FA0
S1132450991F0694A1F70590079428F4E70EF81E37
S1132460491F561FC11D770F881F991F661F0694A9
S1132470A1F70590079428F4F80E491F561FC71FAB
S1132480D11D880F991F661F771F0694A1F7059029
S1132490079420F4490F561FC71FD81F990F661FB2
S11324A0771F881F0694A9F784911095177041F03F
S11324B0D695C79557954795F794E7941A95C1F71C
S11324C0E6EBF0E06894159015913591659195913E
S11324D005907FE27395E118F10A430B560BC90B83
S11324E0D009C0F7E10CF11E431F561FC91FD01DB0
S11324F07EF4703311F48A95E6CFE894015030F0FD
S1132500080F0AF40027021708F4202F2395022F3E
S11325107A3328F079E37D932A95E9F710C07D9307
S11325202A9589F606949795679537951795179484
S1132530E118F10A430B560BC90BD00998F0239507
S11325407E9173957A3308F070E37C932013B8F787
S11325507E9170617D9330F0839571E37D9370E398
S11325602A95E1F71124EF90FF900F911F91CF91DD
S1132570DF91992787FD90950895FC01059061509E
S113258070400110D8F7809590958E0F9F1F089585
S113259042E452E00E94E1120895FB01DC018D91B6
S11325A0019080190110D9F3990B0895FC01615031
S11325B0704001900110D8F7809590958E0F9F1F61
S11325C00895FA01A191B081009719F41097E1F0F0
S11325D0CD01DC01CD010D90002011F4C00113C028
S11325E0FB012191222319F02015D9F7F3CFFB0128
S11325F02191201519F41E92119606C02223C1F7C9
S11326000D900020A1F7D001FA01A193B0830895A1
S11326100F931F93CF93DF93FB01238121FD03C00D
S11326208FEF9FEF2CC022FF16C046815781248173
S113263035814217530744F4A081B1819D012F5F76
S11326403F4F318320838C93268137812F5F3F4F07
S11326503783268314C08B01EC01FB010084F185D0
S1132660E02D0995892BE1F6D80116968D919C9160
S11326701797019617969C938E931697CE01DF9128
S1132680CF911F910F910895AEE0B0E0EAE4F3E139
S11326900C94B8110D891E8986E08C831A830983F2
S11326A08FEF9FE79E838D83AE01475E5F4F6F89F7
S11326B0788DCE0101960E940B0EEF81F885E00F14
S11326C0F11F10822E96E4E00C94D411FA01AA278B
S11326D0283051F1203181F1E8946F936E7F6E5F61
S11326E07F4F8F4F9F4FAF4FB1E03ED0B4E03CD00F
S11326F0670F781F891F9A1FA11D680F791F8A1FF2
S1132700911DA11D6A0F711D811D911DA11D20D058
S113271009F468943F912AE0269F11243019305D12
S11327203193DEF6CF010895462F4770405D419303
S1132730B3E00FD0C9F7F6CF462F4F70405D4A3350
S113274018F0495D31FD4052419302D0A9F7EACF18
S1132750B4E0A6959795879577956795BA95C9F747
S113276000976105710508959B01AC010A2E06943A
S11327705795479537952795BA95C9F7620F731FF3
S1132780841F951FA01D0895A0E0B0E0EAECF3E1DA
S11327900C94B011EC016B016115710519F0FB018A
S11327A0918380837E01FFEFEF1AFF0A0881802F57
S11327B090E00E941215892B11F0E701F3CF0D323E
S11327C039F47E0182E0E80EF11C098111E008C0B1
S11327D00B3229F47E0192E0E90EF11C098110E02C
S11327E0E701219743E050E068EB71E0CE010E94DD
S11327F01B15892BC1F4239645E050E063EB71E08F
S1132800CE010E941B15892B09F42596C114D1040D
S113281019F0F601D183C0831111F6C060E070E0B5
S113282080E89FE7FAC043E050E060EB71E0CE013E
S11328300E941B15892B59F4C114D10409F4E9C071
S1132840F2E0EF0EF11CF601F182E082E2C020E03A
S113285030E0A901C0E0D0E0F70180EDA82EA00E81
S113286089E08A1530F1912F9260B92E812F8870FA
S113287012FF04C0811124C0219622C08111219726
S1132880A5E0B0E00E946815DC01CB01880F991F18
S1132890AA1FBB1F9C01AD012A0D311D411D511DF5
S11328A0283989E93807480789E1580748F016604C
S11328B006C09EEFA9120AC013FD40C01860B12ED5
S11328C08FEFE81AF80A00811B2DC6CF802F8F7D69
S11328D08534A1F580818D3211F4106106C08B32EC
S11328E021F0319661E070E004C08181329662E0AB
S11328F070E080538A3018F0E61BF70B1FC060E0CD
S113290070E060389CE079075CF4DB01AA0FBB1F20
S1132910AA0FBB1F6A0F7B1F660F771F680F711DFD
S11329203196DF0111978C9180538A3050F314FF54
S113293003C0719561957109C60FD71F11FF08C0B7
S1132940C114D10429F0CF010197F601918380834A
S1132950CA01B9010E94620C212F2370233019F09F
S11329604B015C0106C04B015C01B7FAB094B7F8A7
S1132970B09420E030E0A901C501B4010E94B50B78
S1132980882309F43EC0D7FF06C0D195C195D1096B
S11329900FEC11E002C007EE11E06801F8E1CF1A74
S11329A0D10890E2E92EF12CCE15DF0574F0F80180
S11329B02591359145915491C501B4010E94690D49
S11329C04B015C01CE19DF09EFCF04501109F594D6
S11329D0E7940C151D0541F78A2D880F8B2D881F50
S11329E08F3F49F020E030E0A901C501B4010E9405
S11329F0B50B811106C082E290E09093A602809309
S1132A00A502C501B40109C060E070E080E89FEF51
S1132A1004C060E070E080EC9FE7CDB7DEB7ECE087
S1132A200C94CC1191110C943315803219F0895007
S1132A308550C8F70895FB01DC014150504088F0EF
S1132A408D9181341CF08B350CF4805E659161347A
S1132A501CF06B350CF4605E861B611171F3990BED
S1132A600895881BFCCF992788270895DC01CB01A2
S1132A70FC01E199FECF06C0FFBBEEBBE09A3196A4
S1132A800DB20D9241505040B8F70895A8E1B0E05E
S1132A9042E050E00C943815DC01CB0103C02D91C9
S1132AA00E94571541505040D0F70895262FE199C0
S1132AB0FECF9FBB8EBB2DBB0FB6F894E29AE19A72
S1132AC00FBE019608950E945615272F0C94571592
S1132AD00E947315A59F900DB49F900DA49F800D27
S1132AE0911D11240895A29FB001B39FC001A39F1B
S1132AF0700D811D1124911DB29F700D811D112433
S10B2B00911D0895F894FFCF24
S1132B08202C2E2D0064745F736F6C6465720064EE
S1132B18745F736F6C64657220736176652109094B
S1132B28206F6C645F64745F736F6C6465723D20BE
S1132B3825342E3266090020006E65775F64745F61
S1132B48736F6C6465723D2025342E3246090D007E
S1132B5864745F66616E0064745F66616E2073619D
S1132B6876652109092064745F66616E3D20253409
S1132B782E326609006E65775F64745F66616E3D28
S1132B882025342E3246090D00535F4B7000535FE5
S1132B984B702073617665210909206F6C645F535B
S1132BA85F4B703D2025342E3466090909006E6593
S1132BB8775F535F4B703D2025342E3446090D0052
S1132BC8535F4B6900535F4B692073617665210934
S1132BD809206F6C645F535F4B693D2025342E34A4
S1132BE866090909006E65775F535F4B693D2025C7
S1132BF8342E3446090D00535F4B6400535F4B6415
S1132C082073617665210909206F6C645F535F4BFB
S1132C18643D2025342E3466090909006E65775F02
S1132C28535F4B643D2025342E3446090D00465F1E
S1132C384B7000465F4B702073617665210909204B
S1132C486F6C645F465F4B703D2025342E346609F3
S1132C580909006E65775F465F4B703D2025342E69
S1132C683446090D00465F4B6900465F4B69207383
S1132C78617665210909206F6C645F465F4B693D85
S1132C882025342E3466090909006E65775F465F8E
S1132C984B693D2025342E3446090D00465F4B64AC
S1132CA800465F4B642073617665210909206F6CC7
S1132CB8645F465F4B643D2025342E346609090958
S1132CC8006E65775F53465F4B643D2025342E3490
S1132CD846090D0025692020252E31662020256906
S1052CE80000E6
S9030000FC
